{
  "contractName": "Endowment",
  "abi": [
    {
      "anonymous": false,
      "inputs": [
        {
          "indexed": true,
          "internalType": "address",
          "name": "_donorAddress",
          "type": "address"
        },
        {
          "indexed": false,
          "internalType": "string",
          "name": "_donorName",
          "type": "string"
        },
        {
          "indexed": false,
          "internalType": "uint256",
          "name": "_amount",
          "type": "uint256"
        }
      ],
      "name": "DonationEvent",
      "type": "event"
    },
    {
      "inputs": [
        {
          "internalType": "uint256",
          "name": "amount",
          "type": "uint256"
        },
        {
          "internalType": "string",
          "name": "name",
          "type": "string"
        }
      ],
      "name": "donate",
      "outputs": [],
      "stateMutability": "payable",
      "type": "function"
    },
    {
      "inputs": [],
      "name": "funds",
      "outputs": [
        {
          "internalType": "uint256",
          "name": "",
          "type": "uint256"
        }
      ],
      "stateMutability": "view",
      "type": "function"
    },
    {
      "inputs": [],
      "name": "donations",
      "outputs": [
        {
          "components": [
            {
              "internalType": "address",
              "name": "donorAddress",
              "type": "address"
            },
            {
              "internalType": "string",
              "name": "donorName",
              "type": "string"
            },
            {
              "internalType": "uint256",
              "name": "amount",
              "type": "uint256"
            },
            {
              "internalType": "uint256",
              "name": "date",
              "type": "uint256"
            }
          ],
          "internalType": "struct Endowment.Donation[]",
          "name": "",
          "type": "tuple[]"
        }
      ],
      "stateMutability": "view",
      "type": "function"
    },
    {
      "inputs": [
        {
          "internalType": "address",
          "name": "donor",
          "type": "address"
        }
      ],
      "name": "donorName",
      "outputs": [
        {
          "internalType": "string",
          "name": "",
          "type": "string"
        }
      ],
      "stateMutability": "view",
      "type": "function"
    },
    {
      "inputs": [
        {
          "internalType": "address",
          "name": "donor",
          "type": "address"
        }
      ],
      "name": "donorTotal",
      "outputs": [
        {
          "internalType": "uint256",
          "name": "",
          "type": "uint256"
        }
      ],
      "stateMutability": "view",
      "type": "function"
    }
  ],
  "bytecode": "0x608060405234801561001057600080fd5b50610e2c806100206000396000f3fe60806040526004361061004a5760003560e01c806332e1e4d51461004f57806359fc0b261461008c5780638d59d1f1146100c9578063c89f2ce4146100e5578063e8757d1914610110575b600080fd5b34801561005b57600080fd5b50610076600480360381019061007191906108a6565b61013b565b6040516100839190610b55565b60405180910390f35b34801561009857600080fd5b506100b360048036038101906100ae91906108a6565b610286565b6040516100c09190610b33565b60405180910390f35b6100e360048036038101906100de91906108cf565b610357565b005b3480156100f157600080fd5b506100fa6105a6565b6040516101079190610b55565b60405180910390f35b34801561011c57600080fd5b506101256105ae565b6040516101329190610adf565b60405180910390f35b6000806000905060005b600160008573ffffffffffffffffffffffffffffffffffffffff1673ffffffffffffffffffffffffffffffffffffffff1681526020019081526020016000208054905081101561027c576000600160008673ffffffffffffffffffffffffffffffffffffffff1673ffffffffffffffffffffffffffffffffffffffff1681526020019081526020016000208281548110610208577f4e487b7100000000000000000000000000000000000000000000000000000000600052603260045260246000fd5b90600052602060002001548154811061024a577f4e487b7100000000000000000000000000000000000000000000000000000000600052603260045260246000fd5b906000526020600020906004020160020154826102679190610bd6565b9150808061027490610d10565b915050610145565b5080915050919050565b6060600260008373ffffffffffffffffffffffffffffffffffffffff1673ffffffffffffffffffffffffffffffffffffffff16815260200190815260200160002080546102d290610cde565b80601f01602080910402602001604051908101604052809291908181526020018280546102fe90610cde565b801561034b5780601f106103205761010080835404028352916020019161034b565b820191906000526020600020905b81548152906001019060200180831161032e57829003601f168201915b50505050509050919050565b82341461036357600080fd5b6000429050600060405180608001604052803373ffffffffffffffffffffffffffffffffffffffff16815260200185858080601f016020809104026020016040519081016040528093929190818152602001838380828437600081840152601f19601f82011690508083019250505050505050815260200186815260200183815250908060018154018082558091505060019003906000526020600020906004020160009091909190915060008201518160000160006101000a81548173ffffffffffffffffffffffffffffffffffffffff021916908373ffffffffffffffffffffffffffffffffffffffff1602179055506020820151816001019080519060200190610471929190610709565b5060408201518160020155606082015181600301555050600160003373ffffffffffffffffffffffffffffffffffffffff1673ffffffffffffffffffffffffffffffffffffffff16815260200190815260200160002060016000805490506104d99190610c2c565b90806001815401808255809150506001900390600052602060002001600090919091909150558282600260003373ffffffffffffffffffffffffffffffffffffffff1673ffffffffffffffffffffffffffffffffffffffff168152602001908152602001600020919061054d92919061078f565b503373ffffffffffffffffffffffffffffffffffffffff167f190f74b9c5f9e71d32f9e760f77313a9bdb85c3adb7f1a59f004c807ef86db4b84848760405161059893929190610b01565b60405180910390a250505050565b600047905090565b60606000805480602002602001604051908101604052809291908181526020016000905b8282101561070057838290600052602060002090600402016040518060800160405290816000820160009054906101000a900473ffffffffffffffffffffffffffffffffffffffff1673ffffffffffffffffffffffffffffffffffffffff1673ffffffffffffffffffffffffffffffffffffffff16815260200160018201805461065b90610cde565b80601f016020809104026020016040519081016040528092919081815260200182805461068790610cde565b80156106d45780601f106106a9576101008083540402835291602001916106d4565b820191906000526020600020905b8154815290600101906020018083116106b757829003601f168201915b5050505050815260200160028201548152602001600382015481525050815260200190600101906105d2565b50505050905090565b82805461071590610cde565b90600052602060002090601f016020900481019282610737576000855561077e565b82601f1061075057805160ff191683800117855561077e565b8280016001018555821561077e579182015b8281111561077d578251825591602001919060010190610762565b5b50905061078b9190610815565b5090565b82805461079b90610cde565b90600052602060002090601f0160209004810192826107bd5760008555610804565b82601f106107d657803560ff1916838001178555610804565b82800160010185558215610804579182015b828111156108035782358255916020019190600101906107e8565b5b5090506108119190610815565b5090565b5b8082111561082e576000816000905550600101610816565b5090565b60008135905061084181610dc8565b92915050565b60008083601f84011261085957600080fd5b8235905067ffffffffffffffff81111561087257600080fd5b60208301915083600182028301111561088a57600080fd5b9250929050565b6000813590506108a081610ddf565b92915050565b6000602082840312156108b857600080fd5b60006108c684828501610832565b91505092915050565b6000806000604084860312156108e457600080fd5b60006108f286828701610891565b935050602084013567ffffffffffffffff81111561090f57600080fd5b61091b86828701610847565b92509250509250925092565b60006109338383610a5e565b905092915050565b61094481610c60565b82525050565b600061095582610b80565b61095f8185610ba3565b93508360208202850161097185610b70565b8060005b858110156109ad578484038952815161098e8582610927565b945061099983610b96565b925060208a01995050600181019050610975565b50829750879550505050505092915050565b60006109cb8385610bc5565b93506109d8838584610c9c565b6109e183610db7565b840190509392505050565b60006109f782610b8b565b610a018185610bb4565b9350610a11818560208601610cab565b610a1a81610db7565b840191505092915050565b6000610a3082610b8b565b610a3a8185610bc5565b9350610a4a818560208601610cab565b610a5381610db7565b840191505092915050565b6000608083016000830151610a76600086018261093b565b5060208301518482036020860152610a8e82826109ec565b9150506040830151610aa36040860182610ac1565b506060830151610ab66060860182610ac1565b508091505092915050565b610aca81610c92565b82525050565b610ad981610c92565b82525050565b60006020820190508181036000830152610af9818461094a565b905092915050565b60006040820190508181036000830152610b1c8185876109bf565b9050610b2b6020830184610ad0565b949350505050565b60006020820190508181036000830152610b4d8184610a25565b905092915050565b6000602082019050610b6a6000830184610ad0565b92915050565b6000819050602082019050919050565b600081519050919050565b600081519050919050565b6000602082019050919050565b600082825260208201905092915050565b600082825260208201905092915050565b600082825260208201905092915050565b6000610be182610c92565b9150610bec83610c92565b9250827fffffffffffffffffffffffffffffffffffffffffffffffffffffffffffffffff03821115610c2157610c20610d59565b5b828201905092915050565b6000610c3782610c92565b9150610c4283610c92565b925082821015610c5557610c54610d59565b5b828203905092915050565b6000610c6b82610c72565b9050919050565b600073ffffffffffffffffffffffffffffffffffffffff82169050919050565b6000819050919050565b82818337600083830152505050565b60005b83811015610cc9578082015181840152602081019050610cae565b83811115610cd8576000848401525b50505050565b60006002820490506001821680610cf657607f821691505b60208210811415610d0a57610d09610d88565b5b50919050565b6000610d1b82610c92565b91507fffffffffffffffffffffffffffffffffffffffffffffffffffffffffffffffff821415610d4e57610d4d610d59565b5b600182019050919050565b7f4e487b7100000000000000000000000000000000000000000000000000000000600052601160045260246000fd5b7f4e487b7100000000000000000000000000000000000000000000000000000000600052602260045260246000fd5b6000601f19601f8301169050919050565b610dd181610c60565b8114610ddc57600080fd5b50565b610de881610c92565b8114610df357600080fd5b5056fea26469706673582212209f25001217103cbe80a2f8cd42e8bd44433728521aef70aa565311b634266bff64736f6c63430008040033",
  "immutableReferences": {},
  "source": "//SPDX-License-Identifier: MIT\npragma solidity ^0.8.0;\n\ncontract Endowment {\n    struct Donation {\n        address donorAddress;\n        string donorName;\n        uint256 amount;\n        uint256 date;\n    }\n\n    event DonationEvent(\n        address indexed _donorAddress,\n        string _donorName,\n        uint256 _amount\n    );\n\n    Donation[] private _donations;\n    mapping(address => uint256[]) private _donorDonations;\n    mapping(address => string) private _donorNames;\n\n    function donate(uint256 amount, string calldata name) external payable {\n        require(msg.value == amount);\n\n        uint256 date = block.timestamp;\n        _donations.push(\n            Donation({\n                donorAddress: msg.sender,\n                donorName: name,\n                amount: amount,\n                date: date\n            })\n        );\n        _donorDonations[msg.sender].push(_donations.length - 1);\n        _donorNames[msg.sender] = name;\n\n        emit DonationEvent(msg.sender, name, amount);\n    }\n\n    function funds() external view returns (uint256) {\n        return address(this).balance;\n    }\n\n    function donations() public view returns (Donation[] memory) {\n        return _donations;\n    }\n\n    function donorName(address donor) public view returns (string memory) {\n        return _donorNames[donor];\n    }\n\n    function donorTotal(address donor) public view returns (uint256) {\n        uint256 total = 0;\n        for (uint256 i = 0; i < _donorDonations[donor].length; i++) {\n            total += _donations[_donorDonations[donor][i]].amount;\n        }\n        return total;\n    }\n}\n",
  "sourcePath": "/Users/jaredcosulich/workspace/solidity/ethdowment/contracts/Endowment.sol",
  "compiler": {
    "name": "solc",
    "version": "0.8.4+commit.c7e474f2.Emscripten.clang"
  },
  "schemaVersion": "3.4.1",
  "updatedAt": "2021-05-23T13:01:55.582Z",
  "devdoc": {
    "kind": "dev",
    "methods": {},
    "version": 1
  },
  "userdoc": {
    "kind": "user",
    "methods": {},
    "version": 1
  }
}